{
  "_format": "hh-sol-artifact-1",
  "contractName": "AchievementNFT",
  "sourceName": "src/contracts/AchievementNFT.sol",
  "abi": [
    {
      "inputs": [],
      "stateMutability": "nonpayable",
      "type": "constructor"
    },
    {
      "anonymous": false,
      "inputs": [
        {
          "indexed": true,
          "internalType": "address",
          "name": "owner",
          "type": "address"
        },
        {
          "indexed": true,
          "internalType": "address",
          "name": "approved",
          "type": "address"
        },
        {
          "indexed": true,
          "internalType": "uint256",
          "name": "tokenId",
          "type": "uint256"
        }
      ],
      "name": "Approval",
      "type": "event"
    },
    {
      "anonymous": false,
      "inputs": [
        {
          "indexed": true,
          "internalType": "address",
          "name": "owner",
          "type": "address"
        },
        {
          "indexed": true,
          "internalType": "address",
          "name": "operator",
          "type": "address"
        },
        {
          "indexed": false,
          "internalType": "bool",
          "name": "approved",
          "type": "bool"
        }
      ],
      "name": "ApprovalForAll",
      "type": "event"
    },
    {
      "anonymous": false,
      "inputs": [
        {
          "indexed": true,
          "internalType": "address",
          "name": "previousOwner",
          "type": "address"
        },
        {
          "indexed": true,
          "internalType": "address",
          "name": "newOwner",
          "type": "address"
        }
      ],
      "name": "OwnershipTransferred",
      "type": "event"
    },
    {
      "anonymous": false,
      "inputs": [
        {
          "indexed": true,
          "internalType": "address",
          "name": "from",
          "type": "address"
        },
        {
          "indexed": true,
          "internalType": "address",
          "name": "to",
          "type": "address"
        },
        {
          "indexed": true,
          "internalType": "uint256",
          "name": "tokenId",
          "type": "uint256"
        }
      ],
      "name": "Transfer",
      "type": "event"
    },
    {
      "inputs": [
        {
          "internalType": "address",
          "name": "to",
          "type": "address"
        },
        {
          "internalType": "uint256",
          "name": "tokenId",
          "type": "uint256"
        }
      ],
      "name": "approve",
      "outputs": [],
      "stateMutability": "nonpayable",
      "type": "function"
    },
    {
      "inputs": [
        {
          "internalType": "address",
          "name": "owner",
          "type": "address"
        }
      ],
      "name": "balanceOf",
      "outputs": [
        {
          "internalType": "uint256",
          "name": "",
          "type": "uint256"
        }
      ],
      "stateMutability": "view",
      "type": "function"
    },
    {
      "inputs": [
        {
          "internalType": "uint256",
          "name": "tokenId",
          "type": "uint256"
        }
      ],
      "name": "getAchievement",
      "outputs": [
        {
          "internalType": "enum AchievementNFT.BadgeType",
          "name": "badgeType",
          "type": "uint8"
        },
        {
          "internalType": "string",
          "name": "name",
          "type": "string"
        },
        {
          "internalType": "string",
          "name": "description",
          "type": "string"
        }
      ],
      "stateMutability": "view",
      "type": "function"
    },
    {
      "inputs": [
        {
          "internalType": "uint256",
          "name": "tokenId",
          "type": "uint256"
        }
      ],
      "name": "getApproved",
      "outputs": [
        {
          "internalType": "address",
          "name": "",
          "type": "address"
        }
      ],
      "stateMutability": "view",
      "type": "function"
    },
    {
      "inputs": [
        {
          "internalType": "address",
          "name": "",
          "type": "address"
        },
        {
          "internalType": "enum AchievementNFT.BadgeType",
          "name": "",
          "type": "uint8"
        }
      ],
      "name": "hasAchievement",
      "outputs": [
        {
          "internalType": "bool",
          "name": "",
          "type": "bool"
        }
      ],
      "stateMutability": "view",
      "type": "function"
    },
    {
      "inputs": [
        {
          "internalType": "address",
          "name": "owner",
          "type": "address"
        },
        {
          "internalType": "address",
          "name": "operator",
          "type": "address"
        }
      ],
      "name": "isApprovedForAll",
      "outputs": [
        {
          "internalType": "bool",
          "name": "",
          "type": "bool"
        }
      ],
      "stateMutability": "view",
      "type": "function"
    },
    {
      "inputs": [
        {
          "internalType": "address",
          "name": "player",
          "type": "address"
        },
        {
          "internalType": "enum AchievementNFT.BadgeType",
          "name": "badgeType",
          "type": "uint8"
        },
        {
          "internalType": "string",
          "name": "name",
          "type": "string"
        },
        {
          "internalType": "string",
          "name": "description",
          "type": "string"
        }
      ],
      "name": "mintAchievement",
      "outputs": [],
      "stateMutability": "nonpayable",
      "type": "function"
    },
    {
      "inputs": [],
      "name": "name",
      "outputs": [
        {
          "internalType": "string",
          "name": "",
          "type": "string"
        }
      ],
      "stateMutability": "view",
      "type": "function"
    },
    {
      "inputs": [],
      "name": "owner",
      "outputs": [
        {
          "internalType": "address",
          "name": "",
          "type": "address"
        }
      ],
      "stateMutability": "view",
      "type": "function"
    },
    {
      "inputs": [
        {
          "internalType": "uint256",
          "name": "tokenId",
          "type": "uint256"
        }
      ],
      "name": "ownerOf",
      "outputs": [
        {
          "internalType": "address",
          "name": "",
          "type": "address"
        }
      ],
      "stateMutability": "view",
      "type": "function"
    },
    {
      "inputs": [],
      "name": "renounceOwnership",
      "outputs": [],
      "stateMutability": "nonpayable",
      "type": "function"
    },
    {
      "inputs": [
        {
          "internalType": "address",
          "name": "from",
          "type": "address"
        },
        {
          "internalType": "address",
          "name": "to",
          "type": "address"
        },
        {
          "internalType": "uint256",
          "name": "tokenId",
          "type": "uint256"
        }
      ],
      "name": "safeTransferFrom",
      "outputs": [],
      "stateMutability": "nonpayable",
      "type": "function"
    },
    {
      "inputs": [
        {
          "internalType": "address",
          "name": "from",
          "type": "address"
        },
        {
          "internalType": "address",
          "name": "to",
          "type": "address"
        },
        {
          "internalType": "uint256",
          "name": "tokenId",
          "type": "uint256"
        },
        {
          "internalType": "bytes",
          "name": "data",
          "type": "bytes"
        }
      ],
      "name": "safeTransferFrom",
      "outputs": [],
      "stateMutability": "nonpayable",
      "type": "function"
    },
    {
      "inputs": [
        {
          "internalType": "address",
          "name": "operator",
          "type": "address"
        },
        {
          "internalType": "bool",
          "name": "approved",
          "type": "bool"
        }
      ],
      "name": "setApprovalForAll",
      "outputs": [],
      "stateMutability": "nonpayable",
      "type": "function"
    },
    {
      "inputs": [
        {
          "internalType": "string",
          "name": "baseURI",
          "type": "string"
        }
      ],
      "name": "setBaseURI",
      "outputs": [],
      "stateMutability": "nonpayable",
      "type": "function"
    },
    {
      "inputs": [
        {
          "internalType": "bytes4",
          "name": "interfaceId",
          "type": "bytes4"
        }
      ],
      "name": "supportsInterface",
      "outputs": [
        {
          "internalType": "bool",
          "name": "",
          "type": "bool"
        }
      ],
      "stateMutability": "view",
      "type": "function"
    },
    {
      "inputs": [],
      "name": "symbol",
      "outputs": [
        {
          "internalType": "string",
          "name": "",
          "type": "string"
        }
      ],
      "stateMutability": "view",
      "type": "function"
    },
    {
      "inputs": [
        {
          "internalType": "uint256",
          "name": "tokenId",
          "type": "uint256"
        }
      ],
      "name": "tokenURI",
      "outputs": [
        {
          "internalType": "string",
          "name": "",
          "type": "string"
        }
      ],
      "stateMutability": "view",
      "type": "function"
    },
    {
      "inputs": [
        {
          "internalType": "address",
          "name": "from",
          "type": "address"
        },
        {
          "internalType": "address",
          "name": "to",
          "type": "address"
        },
        {
          "internalType": "uint256",
          "name": "tokenId",
          "type": "uint256"
        }
      ],
      "name": "transferFrom",
      "outputs": [],
      "stateMutability": "nonpayable",
      "type": "function"
    },
    {
      "inputs": [
        {
          "internalType": "address",
          "name": "newOwner",
          "type": "address"
        }
      ],
      "name": "transferOwnership",
      "outputs": [],
      "stateMutability": "nonpayable",
      "type": "function"
    }
  ],
  "bytecode": "0x60806040523480156200001157600080fd5b506040518060400160405280601c81526020017f4573636170652054686520436861736d20416368696576656d656e7400000000815250604051806040016040528060048152602001634554434160e01b8152508160009081620000769190620001a8565b506001620000858282620001a8565b505050620000a26200009c620000ad60201b60201c565b620000b1565b600060075562000274565b3390565b600680546001600160a01b038381166001600160a01b0319831681179093556040519116919082907f8be0079c531659141344cd1fd0a4f28419497f9722a3daafe3b4186f6b6457e090600090a35050565b634e487b7160e01b600052604160045260246000fd5b600181811c908216806200012e57607f821691505b6020821081036200014f57634e487b7160e01b600052602260045260246000fd5b50919050565b601f821115620001a357600081815260208120601f850160051c810160208610156200017e5750805b601f850160051c820191505b818110156200019f578281556001016200018a565b5050505b505050565b81516001600160401b03811115620001c457620001c462000103565b620001dc81620001d5845462000119565b8462000155565b602080601f831160018114620002145760008415620001fb5750858301515b600019600386901b1c1916600185901b1785556200019f565b600085815260208120601f198616915b82811015620002455788860151825594840194600190910190840162000224565b5085821015620002645787850151600019600388901b60f8161c191681555b5050505050600190811b01905550565b611c2680620002846000396000f3fe608060405234801561001057600080fd5b506004361061012c5760003560e01c8063715018a6116100ad578063b88d4fde11610071578063b88d4fde14610290578063c87b56dd146102a3578063e985e9c5146102b6578063f2ccc543146102f2578063f2fde38b1461031457600080fd5b8063715018a6146102495780638da5cb5b1461025157806395d89b4114610262578063a00007711461026a578063a22cb4651461027d57600080fd5b806342842e0e116100f457806342842e0e146101c157806345fd14b0146101d457806355f804b3146102025780636352211e1461021557806370a082311461022857600080fd5b806301ffc9a71461013157806306fdde0314610159578063081812fc1461016e578063095ea7b31461019957806323b872dd146101ae575b600080fd5b61014461013f3660046114e5565b610327565b60405190151581526020015b60405180910390f35b610161610379565b6040516101509190611552565b61018161017c366004611565565b61040b565b6040516001600160a01b039091168152602001610150565b6101ac6101a736600461159a565b610432565b005b6101ac6101bc3660046115c4565b61054c565b6101ac6101cf3660046115c4565b61057d565b6101446101e236600461160f565b600960209081526000928352604080842090915290825290205460ff1681565b6101ac6102103660046116ee565b610598565b610181610223366004611565565b6105b0565b61023b610236366004611723565b610610565b604051908152602001610150565b6101ac610696565b6006546001600160a01b0316610181565b6101616106aa565b6101ac61027836600461173e565b6106b9565b6101ac61028b3660046117c3565b610878565b6101ac61029e3660046117ff565b610883565b6101616102b1366004611565565b6108bb565b6101446102c436600461186f565b6001600160a01b03918216600090815260056020908152604080832093909416825291909152205460ff1690565b610305610300366004611565565b610948565b604051610150939291906118af565b6101ac610322366004611723565b610b3f565b60006001600160e01b031982166380ac58cd60e01b148061035857506001600160e01b03198216635b5e139f60e01b145b8061037357506301ffc9a760e01b6001600160e01b03198316145b92915050565b60606000805461038890611902565b80601f01602080910402602001604051908101604052809291908181526020018280546103b490611902565b80156104015780601f106103d657610100808354040283529160200191610401565b820191906000526020600020905b8154815290600101906020018083116103e457829003601f168201915b5050505050905090565b600061041682610bb8565b506000908152600460205260409020546001600160a01b031690565b600061043d826105b0565b9050806001600160a01b0316836001600160a01b0316036104af5760405162461bcd60e51b815260206004820152602160248201527f4552433732313a20617070726f76616c20746f2063757272656e74206f776e656044820152603960f91b60648201526084015b60405180910390fd5b336001600160a01b03821614806104cb57506104cb81336102c4565b61053d5760405162461bcd60e51b815260206004820152603d60248201527f4552433732313a20617070726f76652063616c6c6572206973206e6f7420746f60448201527f6b656e206f776e6572206f7220617070726f76656420666f7220616c6c00000060648201526084016104a6565b6105478383610c17565b505050565b6105563382610c85565b6105725760405162461bcd60e51b81526004016104a69061193c565b610547838383610d04565b61054783838360405180602001604052806000815250610883565b6105a0610e68565b600a6105ac82826119d7565b5050565b6000818152600260205260408120546001600160a01b0316806103735760405162461bcd60e51b8152602060048201526018602482015277115490cdcc8c4e881a5b9d985b1a59081d1bdad95b88125160421b60448201526064016104a6565b60006001600160a01b03821661067a5760405162461bcd60e51b815260206004820152602960248201527f4552433732313a2061646472657373207a65726f206973206e6f7420612076616044820152683634b21037bbb732b960b91b60648201526084016104a6565b506001600160a01b031660009081526003602052604090205490565b61069e610e68565b6106a86000610ec2565b565b60606001805461038890611902565b6001600160a01b0384166000908152600960205260408120908460028111156106e4576106e4611899565b60028111156106f5576106f5611899565b815260208101919091526040016000205460ff16156107675760405162461bcd60e51b815260206004820152602860248201527f506c6179657220616c726561647920686173207468697320616368696576656d604482015267656e74207479706560c01b60648201526084016104a6565b6007805490600061077783611a97565b909155505060075460408051606081019091528085600281111561079d5761079d611899565b815260208082018690526040918201859052600084815260089091522081518154829060ff191660018360028111156107d8576107d8611899565b0217905550602082015160018201906107f190826119d7565b506040820151600282019061080690826119d7565b509050506108148582610f14565b6001600160a01b038516600090815260096020526040812060019186600281111561084157610841611899565b600281111561085257610852611899565b81526020810191909152604001600020805460ff19169115159190911790555050505050565b6105ac338383610f2e565b61088d3383610c85565b6108a95760405162461bcd60e51b81526004016104a69061193c565b6108b584848484610ffc565b50505050565b6000818152600260205260409020546060906001600160a01b03166109195760405162461bcd60e51b8152602060048201526014602482015273151bdad95b88191bd95cc81b9bdd08195e1a5cdd60621b60448201526064016104a6565b6109228261102f565b6040516020016109329190611abe565b6040516020818303038152906040529050919050565b60006060808261096d856000908152600260205260409020546001600160a01b031690565b6001600160a01b0316036109ba5760405162461bcd60e51b8152602060048201526014602482015273151bdad95b88191bd95cc81b9bdd08195e1a5cdd60621b60448201526064016104a6565b6000848152600860205260408082208151606081019092528054829060ff1660028111156109ea576109ea611899565b60028111156109fb576109fb611899565b8152602001600182018054610a0f90611902565b80601f0160208091040260200160405190810160405280929190818152602001828054610a3b90611902565b8015610a885780601f10610a5d57610100808354040283529160200191610a88565b820191906000526020600020905b815481529060010190602001808311610a6b57829003601f168201915b50505050508152602001600282018054610aa190611902565b80601f0160208091040260200160405190810160405280929190818152602001828054610acd90611902565b8015610b1a5780601f10610aef57610100808354040283529160200191610b1a565b820191906000526020600020905b815481529060010190602001808311610afd57829003601f168201915b5050509190925250508151602083015160409093015190989297509550909350505050565b610b47610e68565b6001600160a01b038116610bac5760405162461bcd60e51b815260206004820152602660248201527f4f776e61626c653a206e6577206f776e657220697320746865207a65726f206160448201526564647265737360d01b60648201526084016104a6565b610bb581610ec2565b50565b6000818152600260205260409020546001600160a01b0316610bb55760405162461bcd60e51b8152602060048201526018602482015277115490cdcc8c4e881a5b9d985b1a59081d1bdad95b88125160421b60448201526064016104a6565b600081815260046020526040902080546001600160a01b0319166001600160a01b0384169081179091558190610c4c826105b0565b6001600160a01b03167f8c5be1e5ebec7d5bd14f71427d1e84f3dd0314c0f7b2291e5b200ac8c7c3b92560405160405180910390a45050565b600080610c91836105b0565b9050806001600160a01b0316846001600160a01b03161480610cd857506001600160a01b0380821660009081526005602090815260408083209388168352929052205460ff165b80610cfc5750836001600160a01b0316610cf18461040b565b6001600160a01b0316145b949350505050565b826001600160a01b0316610d17826105b0565b6001600160a01b031614610d3d5760405162461bcd60e51b81526004016104a690611ada565b6001600160a01b038216610d9f5760405162461bcd60e51b8152602060048201526024808201527f4552433732313a207472616e7366657220746f20746865207a65726f206164646044820152637265737360e01b60648201526084016104a6565b826001600160a01b0316610db2826105b0565b6001600160a01b031614610dd85760405162461bcd60e51b81526004016104a690611ada565b600081815260046020908152604080832080546001600160a01b03199081169091556001600160a01b0387811680865260038552838620805460001901905590871680865283862080546001019055868652600290945282852080549092168417909155905184937fddf252ad1be2c89b69c2b068fc378daa952ba7f163c4a11628f55a4df523b3ef91a4505050565b6006546001600160a01b031633146106a85760405162461bcd60e51b815260206004820181905260248201527f4f776e61626c653a2063616c6c6572206973206e6f7420746865206f776e657260448201526064016104a6565b600680546001600160a01b038381166001600160a01b0319831681179093556040519116919082907f8be0079c531659141344cd1fd0a4f28419497f9722a3daafe3b4186f6b6457e090600090a35050565b6105ac828260405180602001604052806000815250611096565b816001600160a01b0316836001600160a01b031603610f8f5760405162461bcd60e51b815260206004820152601960248201527f4552433732313a20617070726f766520746f2063616c6c65720000000000000060448201526064016104a6565b6001600160a01b03838116600081815260056020908152604080832094871680845294825291829020805460ff191686151590811790915591519182527f17307eab39ab6107e8899845ad3d59bd9653f200f220920489ca2b5937696c31910160405180910390a3505050565b611007848484610d04565b611013848484846110c9565b6108b55760405162461bcd60e51b81526004016104a690611b1f565b606061103a82610bb8565b60006110446111ca565b90506000815111611064576040518060200160405280600081525061108f565b8061106e846111d9565b60405160200161107f929190611b71565b6040516020818303038152906040525b9392505050565b6110a0838361126c565b6110ad60008484846110c9565b6105475760405162461bcd60e51b81526004016104a690611b1f565b60006001600160a01b0384163b156111bf57604051630a85bd0160e11b81526001600160a01b0385169063150b7a029061110d903390899088908890600401611ba0565b6020604051808303816000875af1925050508015611148575060408051601f3d908101601f1916820190925261114591810190611bd3565b60015b6111a5573d808015611176576040519150601f19603f3d011682016040523d82523d6000602084013e61117b565b606091505b50805160000361119d5760405162461bcd60e51b81526004016104a690611b1f565b805181602001fd5b6001600160e01b031916630a85bd0160e11b149050610cfc565b506001949350505050565b6060600a805461038890611902565b606060006111e6836113f7565b600101905060008167ffffffffffffffff81111561120657611206611642565b6040519080825280601f01601f191660200182016040528015611230576020820181803683370190505b5090508181016020015b600019016f181899199a1a9b1b9c1cb0b131b232b360811b600a86061a8153600a850494508461123a57509392505050565b6001600160a01b0382166112c25760405162461bcd60e51b815260206004820181905260248201527f4552433732313a206d696e7420746f20746865207a65726f206164647265737360448201526064016104a6565b6000818152600260205260409020546001600160a01b0316156113275760405162461bcd60e51b815260206004820152601c60248201527f4552433732313a20746f6b656e20616c7265616479206d696e7465640000000060448201526064016104a6565b6000818152600260205260409020546001600160a01b03161561138c5760405162461bcd60e51b815260206004820152601c60248201527f4552433732313a20746f6b656e20616c7265616479206d696e7465640000000060448201526064016104a6565b6001600160a01b038216600081815260036020908152604080832080546001019055848352600290915280822080546001600160a01b0319168417905551839291907fddf252ad1be2c89b69c2b068fc378daa952ba7f163c4a11628f55a4df523b3ef908290a45050565b60008072184f03e93ff9f4daa797ed6e38ed64bf6a1f0160401b83106114365772184f03e93ff9f4daa797ed6e38ed64bf6a1f0160401b830492506040015b6d04ee2d6d415b85acef81000000008310611462576d04ee2d6d415b85acef8100000000830492506020015b662386f26fc10000831061148057662386f26fc10000830492506010015b6305f5e1008310611498576305f5e100830492506008015b61271083106114ac57612710830492506004015b606483106114be576064830492506002015b600a83106103735760010192915050565b6001600160e01b031981168114610bb557600080fd5b6000602082840312156114f757600080fd5b813561108f816114cf565b60005b8381101561151d578181015183820152602001611505565b50506000910152565b6000815180845261153e816020860160208601611502565b601f01601f19169290920160200192915050565b60208152600061108f6020830184611526565b60006020828403121561157757600080fd5b5035919050565b80356001600160a01b038116811461159557600080fd5b919050565b600080604083850312156115ad57600080fd5b6115b68361157e565b946020939093013593505050565b6000806000606084860312156115d957600080fd5b6115e28461157e565b92506115f06020850161157e565b9150604084013590509250925092565b80356003811061159557600080fd5b6000806040838503121561162257600080fd5b61162b8361157e565b915061163960208401611600565b90509250929050565b634e487b7160e01b600052604160045260246000fd5b600067ffffffffffffffff8084111561167357611673611642565b604051601f8501601f19908116603f0116810190828211818310171561169b5761169b611642565b816040528093508581528686860111156116b457600080fd5b858560208301376000602087830101525050509392505050565b600082601f8301126116df57600080fd5b61108f83833560208501611658565b60006020828403121561170057600080fd5b813567ffffffffffffffff81111561171757600080fd5b610cfc848285016116ce565b60006020828403121561173557600080fd5b61108f8261157e565b6000806000806080858703121561175457600080fd5b61175d8561157e565b935061176b60208601611600565b9250604085013567ffffffffffffffff8082111561178857600080fd5b611794888389016116ce565b935060608701359150808211156117aa57600080fd5b506117b7878288016116ce565b91505092959194509250565b600080604083850312156117d657600080fd5b6117df8361157e565b9150602083013580151581146117f457600080fd5b809150509250929050565b6000806000806080858703121561181557600080fd5b61181e8561157e565b935061182c6020860161157e565b925060408501359150606085013567ffffffffffffffff81111561184f57600080fd5b8501601f8101871361186057600080fd5b6117b787823560208401611658565b6000806040838503121561188257600080fd5b61188b8361157e565b91506116396020840161157e565b634e487b7160e01b600052602160045260246000fd5b6000600385106118cf57634e487b7160e01b600052602160045260246000fd5b848252606060208301526118e66060830185611526565b82810360408401526118f88185611526565b9695505050505050565b600181811c9082168061191657607f821691505b60208210810361193657634e487b7160e01b600052602260045260246000fd5b50919050565b6020808252602d908201527f4552433732313a2063616c6c6572206973206e6f7420746f6b656e206f776e6560408201526c1c881bdc88185c1c1c9bdd9959609a1b606082015260800190565b601f82111561054757600081815260208120601f850160051c810160208610156119b05750805b601f850160051c820191505b818110156119cf578281556001016119bc565b505050505050565b815167ffffffffffffffff8111156119f1576119f1611642565b611a05816119ff8454611902565b84611989565b602080601f831160018114611a3a5760008415611a225750858301515b600019600386901b1c1916600185901b1785556119cf565b600085815260208120601f198616915b82811015611a6957888601518255948401946001909101908401611a4a565b5085821015611a875787850151600019600388901b60f8161c191681555b5050505050600190811b01905550565b600060018201611ab757634e487b7160e01b600052601160045260246000fd5b5060010190565b60008251611ad0818460208701611502565b9190910192915050565b60208082526025908201527f4552433732313a207472616e736665722066726f6d20696e636f72726563742060408201526437bbb732b960d91b606082015260800190565b60208082526032908201527f4552433732313a207472616e7366657220746f206e6f6e20455243373231526560408201527131b2b4bb32b91034b6b83632b6b2b73a32b960711b606082015260800190565b60008351611b83818460208801611502565b835190830190611b97818360208801611502565b01949350505050565b6001600160a01b03858116825284166020820152604081018390526080606082018190526000906118f890830184611526565b600060208284031215611be557600080fd5b815161108f816114cf56fea26469706673582212207f976caa1e3a8327b6bb7e23683714a63e683169379aacda7c145ed5098e025d64736f6c63430008140033",
  "linkReferences": {},
  "deployedLinkReferences": {}
}